{
  "address": "0xc0aFE163171B296D5e78e7Df50aa49484dDa5146",
  "abi": [
    {
      "inputs": [],
      "name": "AccountCreationFailed",
      "type": "error"
    },
    {
      "anonymous": false,
      "inputs": [
        {
          "indexed": false,
          "internalType": "address",
          "name": "account",
          "type": "address"
        },
        {
          "indexed": true,
          "internalType": "address",
          "name": "implementation",
          "type": "address"
        },
        {
          "indexed": false,
          "internalType": "uint256",
          "name": "chainId",
          "type": "uint256"
        },
        {
          "indexed": true,
          "internalType": "address",
          "name": "tokenContract",
          "type": "address"
        },
        {
          "indexed": true,
          "internalType": "uint256",
          "name": "tokenId",
          "type": "uint256"
        },
        {
          "indexed": false,
          "internalType": "uint256",
          "name": "salt",
          "type": "uint256"
        }
      ],
      "name": "AccountCreated",
      "type": "event"
    },
    {
      "inputs": [
        {
          "internalType": "address",
          "name": "implementation",
          "type": "address"
        },
        {
          "internalType": "uint256",
          "name": "chainId",
          "type": "uint256"
        },
        {
          "internalType": "address",
          "name": "tokenContract",
          "type": "address"
        },
        {
          "internalType": "uint256",
          "name": "tokenId",
          "type": "uint256"
        },
        {
          "internalType": "uint256",
          "name": "salt",
          "type": "uint256"
        }
      ],
      "name": "account",
      "outputs": [
        {
          "internalType": "address",
          "name": "",
          "type": "address"
        }
      ],
      "stateMutability": "view",
      "type": "function"
    },
    {
      "inputs": [
        {
          "internalType": "address",
          "name": "implementation",
          "type": "address"
        },
        {
          "internalType": "uint256",
          "name": "chainId",
          "type": "uint256"
        },
        {
          "internalType": "address",
          "name": "tokenContract",
          "type": "address"
        },
        {
          "internalType": "uint256",
          "name": "tokenId",
          "type": "uint256"
        },
        {
          "internalType": "uint256",
          "name": "salt",
          "type": "uint256"
        },
        {
          "internalType": "bytes",
          "name": "initData",
          "type": "bytes"
        }
      ],
      "name": "createAccount",
      "outputs": [
        {
          "internalType": "address",
          "name": "",
          "type": "address"
        }
      ],
      "stateMutability": "nonpayable",
      "type": "function"
    }
  ],
  "transactionHash": "0x9c527ba161e57906cef03b378371db4fdea78082d3a1e07932fef28b8f2c1ad1",
  "args": [],
  "numDeployments": 1,
  "solcInputHash": "504eb49cb29d1062478471eda13e5141",
  "bytecode": "0x608080604052346100165761041b908161001c8239f35b600080fdfe60806040526004361015610013575b600080fd5b60003560e01c80635e9bc5361461003b5763da7323b31461003357600080fd5b61000e6100c1565b3461000e5760a036600319011261000e576020610083610059610095565b6100776100646100ab565b6084359283916064359160243590610319565b838151910120906102f9565b6040516001600160a01b039091168152f35b600435906001600160a01b038216820361000e57565b604435906001600160a01b038216820361000e57565b503461000e5760c036600319011261000e576100db610095565b6100e36100ab565b9060a4359067ffffffffffffffff9081831161000e573660238401121561000e57826004013591821161000e57366024838501011161000e57610153936024610139940191608435916064359160243590610215565b6040516001600160a01b0390911681529081906020820190565b0390f35b908092918237016000815290565b50634e487b7160e01b600052604160045260246000fd5b60a0810190811067ffffffffffffffff82111761019857604052565b6101a0610165565b604052565b90601f8019910116810190811067ffffffffffffffff82111761019857604052565b3d15610210573d9067ffffffffffffffff8211610203575b604051916101f7601f8201601f1916602001846101a5565b82523d6000602084013e565b61020b610165565b6101df565b606090565b9091959493926102288482898686610319565b9182519361023c60208501958620876102f9565b90813b6102ec57604080516001600160a01b0393841681526020810192909252810187905290988916918916907f07fba7bba1191da7ee1155dcfa0030701c9c9a9cc34a93b991fc6fd0c9268d8f90606090a451906000f5928316156102da57816102a657505090565b60009182916102ba60405180938193610157565b039082855af16102c86101c7565b90156102d2575090565b602081519101fd5b6040516320188a5960e01b8152600490fd5b5097505050505050505090565b605591600b9160405191604083015260208201523081520160ff81532090565b919290926040519360209586860152604085015260018060a01b0316606084015260808301526080825261034c8261017c565b604051928391733d60ad80600a3d3981f3363d3d373d3d3d363d7360601b828401526bffffffffffffffffffffffff199060601b1660348301526e5af43d82803e903d91602b57fd5bf360881b604883015282519260005b8481106103ce57505050806103cb92605792016000838201520360378101845201826101a5565b90565b8181018301518682016057015285935082016103a456fea26469706673582212208dd36ef7f78e6bffda8f6fffada72fd9c2191affb28aa177f38e4c09f9ec52e364736f6c63430008110033",
  "devdoc": {
    "kind": "dev",
    "methods": {
      "account(address,uint256,address,uint256,uint256)": {
        "details": "Returns the computed token bound account address for a non-fungible token",
        "returns": {
          "_0": "The computed address of the token bound account"
        }
      }
    },
    "version": 1
  },
  "userdoc": {
    "kind": "user",
    "methods": {},
    "version": 1
  },
  "storageLayout": {
    "storage": [],
    "types": null
  }
}