{
  "address": "0x436d3860d2a255c398Ce31CdF600fd6a1D6E33f6",
  "abi": [
    {
      "inputs": [
        {
          "internalType": "address",
          "name": "_target",
          "type": "address"
        },
        {
          "internalType": "uint256",
          "name": "_value",
          "type": "uint256"
        },
        {
          "internalType": "bytes",
          "name": "_data",
          "type": "bytes"
        },
        {
          "internalType": "uint256",
          "name": "_operation",
          "type": "uint256"
        }
      ],
      "name": "execute",
      "outputs": [
        {
          "internalType": "bytes",
          "name": "_result",
          "type": "bytes"
        }
      ],
      "stateMutability": "payable",
      "type": "function"
    },
    {
      "inputs": [
        {
          "internalType": "bytes32",
          "name": "hash",
          "type": "bytes32"
        },
        {
          "internalType": "bytes",
          "name": "signature",
          "type": "bytes"
        }
      ],
      "name": "isValidSignature",
      "outputs": [
        {
          "internalType": "bytes4",
          "name": "magicValue",
          "type": "bytes4"
        }
      ],
      "stateMutability": "view",
      "type": "function"
    },
    {
      "inputs": [
        {
          "internalType": "address",
          "name": "signer",
          "type": "address"
        },
        {
          "internalType": "bytes",
          "name": "",
          "type": "bytes"
        }
      ],
      "name": "isValidSigner",
      "outputs": [
        {
          "internalType": "bytes4",
          "name": "",
          "type": "bytes4"
        }
      ],
      "stateMutability": "view",
      "type": "function"
    },
    {
      "inputs": [
        {
          "internalType": "address",
          "name": "",
          "type": "address"
        },
        {
          "internalType": "address",
          "name": "",
          "type": "address"
        },
        {
          "internalType": "uint256[]",
          "name": "",
          "type": "uint256[]"
        },
        {
          "internalType": "uint256[]",
          "name": "",
          "type": "uint256[]"
        },
        {
          "internalType": "bytes",
          "name": "",
          "type": "bytes"
        }
      ],
      "name": "onERC1155BatchReceived",
      "outputs": [
        {
          "internalType": "bytes4",
          "name": "",
          "type": "bytes4"
        }
      ],
      "stateMutability": "pure",
      "type": "function"
    },
    {
      "inputs": [
        {
          "internalType": "address",
          "name": "",
          "type": "address"
        },
        {
          "internalType": "address",
          "name": "",
          "type": "address"
        },
        {
          "internalType": "uint256",
          "name": "",
          "type": "uint256"
        },
        {
          "internalType": "uint256",
          "name": "",
          "type": "uint256"
        },
        {
          "internalType": "bytes",
          "name": "",
          "type": "bytes"
        }
      ],
      "name": "onERC1155Received",
      "outputs": [
        {
          "internalType": "bytes4",
          "name": "",
          "type": "bytes4"
        }
      ],
      "stateMutability": "pure",
      "type": "function"
    },
    {
      "inputs": [
        {
          "internalType": "address",
          "name": "",
          "type": "address"
        },
        {
          "internalType": "address",
          "name": "",
          "type": "address"
        },
        {
          "internalType": "uint256",
          "name": "receivedTokenId",
          "type": "uint256"
        },
        {
          "internalType": "bytes",
          "name": "",
          "type": "bytes"
        }
      ],
      "name": "onERC721Received",
      "outputs": [
        {
          "internalType": "bytes4",
          "name": "",
          "type": "bytes4"
        }
      ],
      "stateMutability": "view",
      "type": "function"
    },
    {
      "inputs": [],
      "name": "owner",
      "outputs": [
        {
          "internalType": "address",
          "name": "",
          "type": "address"
        }
      ],
      "stateMutability": "view",
      "type": "function"
    },
    {
      "inputs": [],
      "name": "state",
      "outputs": [
        {
          "internalType": "uint256",
          "name": "",
          "type": "uint256"
        }
      ],
      "stateMutability": "view",
      "type": "function"
    },
    {
      "inputs": [
        {
          "internalType": "bytes4",
          "name": "interfaceId",
          "type": "bytes4"
        }
      ],
      "name": "supportsInterface",
      "outputs": [
        {
          "internalType": "bool",
          "name": "",
          "type": "bool"
        }
      ],
      "stateMutability": "pure",
      "type": "function"
    },
    {
      "inputs": [],
      "name": "token",
      "outputs": [
        {
          "internalType": "uint256",
          "name": "",
          "type": "uint256"
        },
        {
          "internalType": "address",
          "name": "",
          "type": "address"
        },
        {
          "internalType": "uint256",
          "name": "",
          "type": "uint256"
        }
      ],
      "stateMutability": "view",
      "type": "function"
    },
    {
      "stateMutability": "payable",
      "type": "receive"
    }
  ],
  "transactionHash": "0xd153ad0359d008c11b15e84459f247f248fbfa1e2617942913280c553174b3b4",
  "args": [],
  "numDeployments": 1,
  "solcInputHash": "504eb49cb29d1062478471eda13e5141",
  "bytecode": "0x6080806040523461001657610dd9908161001c8239f35b600080fdfe6080604052600436101561001b575b361561001957600080fd5b005b60003560e01c806301ffc9a7146100e3578063150b7a02146100da5780631626ba7e146100d1578063523e3260146100c857806374420f4c146100bf5780638da5cb5b146100b6578063bc197c81146100ad578063c19d93fb146100a4578063f23a6e611461009b5763fc0c546a0361000e5761009661088a565b61000e565b5061009661082f565b50610096610810565b50610096610782565b506100966106df565b506100966105fd565b5061009661055e565b506100966104de565b50610096610279565b503461018f57602036600319011261018f5760043563ffffffff60e01b811680910361018f5761014790636faff5f160e01b811490811561017e575b811561016d575b811561015c575b811561014b575b5060405190151581529081906020820190565b0390f35b6301ffc9a760e01b14905038610134565b630a85bd0160e11b8114915061012d565b630271189760e51b81149150610126565b631d1083d360e21b8114915061011f565b600080fd5b6001600160a01b0381160361018f57565b50634e487b7160e01b600052604160045260246000fd5b6080810190811067ffffffffffffffff8211176101d857604052565b6101e06101a5565b604052565b90601f8019910116810190811067ffffffffffffffff8211176101d857604052565b60209067ffffffffffffffff8111610225575b601f01601f19160190565b61022d6101a5565b61021a565b81601f8201121561018f5780359061024982610207565b9261025760405194856101e5565b8284526020838301011161018f57816000926020809301838601378301015290565b503461018f57608036600319011261018f5760046102978135610194565b6102a2602435610194565b6044359060643567ffffffffffffffff811161018f576102c59036908301610232565b506102ec6102d1610d56565b90914614918215926104ca575b5081156104bf575b50610ca4565b6102f4610bf7565b6001600160a01b039061030b818316301415610ce6565b60005b813b156104b55760409083825193637e062a3560e11b85528487816060948594165afa806000958693879361047e575b505061035f5750505050505050505b604051630a85bd0160e11b8152602090f35b6103a0944614801590610472575b8015610468575b61037d90610ce6565b835180926331a9108f60e11b82528188816020998a968d83019190602083019252565b0392165afa93841561045b575b600094610427575b50506001906103c984863091161415610ce6565b0190600582146103d9575061030e565b5162461bcd60e51b815260208186018181526018918101919091527f4f776e65727368697020636861696e20746f6f20646565700000000000000000604082015281906060010390fd5b0390fd5b6001929450908161044c92903d10610454575b61044481836101e5565b810190610be2565b9290386103b5565b503d61043a565b610463610b1c565b6103ad565b5080881415610374565b5033868316141561036d565b91965091506104a29250803d106104ae575b61049a81836101e5565b810190610d32565b9194909190388061033e565b503d610490565b505050505061034d565b9050831415386102e6565b6001600160a01b03163314159150386102de565b503461018f57604036600319011261018f5760243567ffffffffffffffff811161018f5761051d6105156020923690600401610232565b6004356109df565b6040516001600160e01b03199091168152f35b9181601f8401121561018f5782359167ffffffffffffffff831161018f576020838186019501011161018f57565b503461018f57604036600319011261018f5760043561057c81610194565b60243567ffffffffffffffff811161018f576020916105a261051d923690600401610530565b5050610bb9565b919082519283825260005b8481106105d5575050826000602080949584010152601f8019910116010190565b6020818301810151848301820152016105b4565b9060206105fa9281815201906105a9565b90565b50608036600319011261018f5760043561061681610194565b60443567ffffffffffffffff811161018f57610636903690600401610530565b906001600160a01b03610647610bf7565b1633036106a457610147926000928392610663606435156108f9565b61066d8454610950565b845561067e60405180938193610975565b0391602435905af1610698610691610983565b80926109b3565b604051918291826105e9565b60405162461bcd60e51b815260206004820152601360248201527221b0b63632b91034b9903737ba1037bbb732b960691b6044820152606490fd5b503461018f57600036600319011261018f5760206106fb610bf7565b6040516001600160a01b039091168152f35b9080601f8301121561018f5781359067ffffffffffffffff8211610775575b8160051b60405193602093610743858401876101e5565b8552838086019282010192831161018f578301905b828210610766575050505090565b81358152908301908301610758565b61077d6101a5565b61072c565b503461018f5760a036600319011261018f5761079f600435610194565b6107aa602435610194565b67ffffffffffffffff60443581811161018f576107cb90369060040161070d565b5060643581811161018f576107e490369060040161070d565b5060843590811161018f576107fd903690600401610232565b5060405163bc197c8160e01b8152602090f35b503461018f57600036600319011261018f576020600054604051908152f35b503461018f5760a036600319011261018f5761084c600435610194565b610857602435610194565b60843567ffffffffffffffff811161018f57610877903690600401610232565b5060405163f23a6e6160e01b8152602090f35b503461018f57600036600319011261018f576040516108a8816101bc565b6060815260208101906060604d83303c60608180518101031261018f576060915190826040820151916108da83610194565b0151604080519384526001600160a01b03909216602084015290820152f35b1561090057565b60405162461bcd60e51b815260206004820152602260248201527f4f6e6c792063616c6c206f7065726174696f6e732061726520737570706f7274604482015261195960f21b6064820152608490fd5b600019811461095f5760010190565b634e487b7160e01b600052601160045260246000fd5b908092918237016000815290565b3d156109ae573d9061099482610207565b916109a260405193846101e5565b82523d6000602084013e565b606090565b156109bb5750565b60405162461bcd60e51b8152602060048201529081906104239060248301906105a9565b6109e7610bf7565b6109f18383610ae4565b6005819592951015610ace57159384610ab8575b508315610a24575b505050610a1957600090565b630b135d3f60e11b90565b6000929350908291604051610a6b81610a5d6020820194630b135d3f60e11b998a875260248401526040604484015260648301906105a9565b03601f1981018352826101e5565b51915afa90610a78610983565b82610aaa575b82610a8e575b5050388080610a0d565b90915060208180518101031261018f5760200151143880610a84565b915060208251101591610a7e565b6001600160a01b03838116911614935038610a05565b634e487b7160e01b600052602160045260246000fd5b906041815114600014610b1257610b0e916020820151906060604084015193015160001a90610b29565b9091565b5050600090600290565b506040513d6000823e3d90fd5b9291907f7fffffffffffffffffffffffffffffff5d576e7357a4501ddfe92f46681b20a08311610bad5791608094939160ff602094604051948552168484015260408301526060820152600093849182805260015afa15610ba0575b81516001600160a01b03811615610b9a579190565b50600190565b610ba8610b1c565b610b85565b50505050600090600390565b6001600160a01b0380610bca610bf7565b16911614610bd757600090565b630291f19360e51b90565b9081602091031261018f57516105fa81610194565b604051610c03816101bc565b60608152602081016060604d82303c60608280518101031261018f5751906060604082015191610c3283610194565b0151914603610c9d576040516331a9108f60e11b81526004810192909252602090829060249082906001600160a01b03165afa908115610c90575b600091610c78575090565b6105fa915060203d81116104545761044481836101e5565b610c98610b1c565b610c6d565b5050600090565b15610cab57565b60405162461bcd60e51b815260206004820152601360248201527221b0b73737ba1037bbb7103cb7bab939b2b63360691b6044820152606490fd5b15610ced57565b60405162461bcd60e51b815260206004820152601860248201527f546f6b656e20696e206f776e65727368697020636861696e00000000000000006044820152606490fd5b9081606091031261018f5780519160406020830151610d5081610194565b92015190565b60405190610d63826101bc565b60608252602082016060604d82303c60608380518101031261018f5751906060604084015193610d9285610194565b015191926001600160a01b0316919056fea264697066735822122058f1c5b972c461b91c2ce99d7f9b7154cdf59e0b2db67834f6bd7afa8a599dd264736f6c63430008110033",
  "devdoc": {
    "kind": "dev",
    "methods": {
      "execute(address,uint256,bytes,uint256)": {
        "details": "{See IERC6551Executable-execute}"
      },
      "isValidSignature(bytes32,bytes)": {
        "details": "Should return whether the signature provided is valid for the provided data",
        "params": {
          "hash": "Hash of the data to be signed",
          "signature": "Signature byte array associated with _data"
        }
      },
      "owner()": {
        "details": "{See IERC6551Account-owner}"
      },
      "supportsInterface(bytes4)": {
        "details": "Returns true if this contract implements the interface defined by `interfaceId`. See the corresponding https://eips.ethereum.org/EIPS/eip-165#how-interfaces-are-identified[EIP section] to learn more about how these ids are created. This function call must use less than 30 000 gas."
      },
      "token()": {
        "details": "{See IERC6551Account-token}"
      }
    },
    "stateVariables": {
      "state": {
        "details": "Returns a value that SHOULD be modified each time the account changes state",
        "return": "The current account state",
        "returns": {
          "_0": "The current account state"
        }
      }
    },
    "title": "ERC6551Account",
    "version": 1
  },
  "userdoc": {
    "kind": "user",
    "methods": {},
    "notice": "A lightweight smart contract wallet implementation of ERC6551Account",
    "version": 1
  },
  "storageLayout": {
    "storage": [
      {
        "astId": 5593,
        "contract": "contracts/NBANFT/ERC6551Account.sol:ERC6551Account",
        "label": "state",
        "offset": 0,
        "slot": "0",
        "type": "t_uint256"
      }
    ],
    "types": {
      "t_uint256": {
        "encoding": "inplace",
        "label": "uint256",
        "numberOfBytes": "32"
      }
    }
  }
}