{
  "address": "0xB2c5D4df6f7AE2Bf94652c4356C3aE230F57b775",
  "abi": [
    {
      "inputs": [
        {
          "internalType": "string",
          "name": "_name",
          "type": "string"
        },
        {
          "internalType": "string",
          "name": "_symbol",
          "type": "string"
        },
        {
          "internalType": "address",
          "name": "_descriptor",
          "type": "address"
        },
        {
          "internalType": "contract IERC6551Registry",
          "name": "_registry",
          "type": "address"
        },
        {
          "internalType": "address",
          "name": "_defaultImplementation",
          "type": "address"
        }
      ],
      "stateMutability": "nonpayable",
      "type": "constructor"
    },
    {
      "anonymous": false,
      "inputs": [
        {
          "indexed": true,
          "internalType": "address",
          "name": "owner",
          "type": "address"
        },
        {
          "indexed": true,
          "internalType": "address",
          "name": "approved",
          "type": "address"
        },
        {
          "indexed": true,
          "internalType": "uint256",
          "name": "tokenId",
          "type": "uint256"
        }
      ],
      "name": "Approval",
      "type": "event"
    },
    {
      "anonymous": false,
      "inputs": [
        {
          "indexed": true,
          "internalType": "address",
          "name": "owner",
          "type": "address"
        },
        {
          "indexed": true,
          "internalType": "address",
          "name": "operator",
          "type": "address"
        },
        {
          "indexed": false,
          "internalType": "bool",
          "name": "approved",
          "type": "bool"
        }
      ],
      "name": "ApprovalForAll",
      "type": "event"
    },
    {
      "anonymous": false,
      "inputs": [
        {
          "indexed": true,
          "internalType": "address",
          "name": "previousOwner",
          "type": "address"
        },
        {
          "indexed": true,
          "internalType": "address",
          "name": "newOwner",
          "type": "address"
        }
      ],
      "name": "OwnershipTransferred",
      "type": "event"
    },
    {
      "anonymous": false,
      "inputs": [
        {
          "indexed": true,
          "internalType": "address",
          "name": "from",
          "type": "address"
        },
        {
          "indexed": true,
          "internalType": "address",
          "name": "to",
          "type": "address"
        },
        {
          "indexed": true,
          "internalType": "uint256",
          "name": "tokenId",
          "type": "uint256"
        }
      ],
      "name": "Transfer",
      "type": "event"
    },
    {
      "inputs": [
        {
          "internalType": "address",
          "name": "to",
          "type": "address"
        },
        {
          "internalType": "uint256",
          "name": "tokenId",
          "type": "uint256"
        }
      ],
      "name": "approve",
      "outputs": [],
      "stateMutability": "nonpayable",
      "type": "function"
    },
    {
      "inputs": [
        {
          "internalType": "address",
          "name": "owner",
          "type": "address"
        }
      ],
      "name": "balanceOf",
      "outputs": [
        {
          "internalType": "uint256",
          "name": "",
          "type": "uint256"
        }
      ],
      "stateMutability": "view",
      "type": "function"
    },
    {
      "inputs": [],
      "name": "buidlGuidl",
      "outputs": [
        {
          "internalType": "address",
          "name": "",
          "type": "address"
        }
      ],
      "stateMutability": "view",
      "type": "function"
    },
    {
      "inputs": [
        {
          "internalType": "uint256",
          "name": "",
          "type": "uint256"
        }
      ],
      "name": "color_1",
      "outputs": [
        {
          "internalType": "bytes3",
          "name": "",
          "type": "bytes3"
        }
      ],
      "stateMutability": "view",
      "type": "function"
    },
    {
      "inputs": [
        {
          "internalType": "uint256",
          "name": "",
          "type": "uint256"
        }
      ],
      "name": "color_2",
      "outputs": [
        {
          "internalType": "bytes3",
          "name": "",
          "type": "bytes3"
        }
      ],
      "stateMutability": "view",
      "type": "function"
    },
    {
      "inputs": [
        {
          "internalType": "uint256",
          "name": "",
          "type": "uint256"
        }
      ],
      "name": "color_3",
      "outputs": [
        {
          "internalType": "bytes3",
          "name": "",
          "type": "bytes3"
        }
      ],
      "stateMutability": "view",
      "type": "function"
    },
    {
      "inputs": [
        {
          "internalType": "uint256",
          "name": "",
          "type": "uint256"
        }
      ],
      "name": "color_4",
      "outputs": [
        {
          "internalType": "bytes3",
          "name": "",
          "type": "bytes3"
        }
      ],
      "stateMutability": "view",
      "type": "function"
    },
    {
      "inputs": [],
      "name": "defaultAccountImplementation",
      "outputs": [
        {
          "internalType": "address",
          "name": "",
          "type": "address"
        }
      ],
      "stateMutability": "view",
      "type": "function"
    },
    {
      "inputs": [
        {
          "internalType": "uint256",
          "name": "tokenId",
          "type": "uint256"
        }
      ],
      "name": "getApproved",
      "outputs": [
        {
          "internalType": "address",
          "name": "",
          "type": "address"
        }
      ],
      "stateMutability": "view",
      "type": "function"
    },
    {
      "inputs": [
        {
          "internalType": "address",
          "name": "owner",
          "type": "address"
        },
        {
          "internalType": "address",
          "name": "operator",
          "type": "address"
        }
      ],
      "name": "isApprovedForAll",
      "outputs": [
        {
          "internalType": "bool",
          "name": "",
          "type": "bool"
        }
      ],
      "stateMutability": "view",
      "type": "function"
    },
    {
      "inputs": [
        {
          "internalType": "uint256",
          "name": "",
          "type": "uint256"
        }
      ],
      "name": "mainAccount",
      "outputs": [
        {
          "internalType": "address",
          "name": "",
          "type": "address"
        }
      ],
      "stateMutability": "view",
      "type": "function"
    },
    {
      "inputs": [],
      "name": "maxMintAmount",
      "outputs": [
        {
          "internalType": "uint256",
          "name": "",
          "type": "uint256"
        }
      ],
      "stateMutability": "view",
      "type": "function"
    },
    {
      "inputs": [],
      "name": "maxSupply",
      "outputs": [
        {
          "internalType": "uint256",
          "name": "",
          "type": "uint256"
        }
      ],
      "stateMutability": "view",
      "type": "function"
    },
    {
      "inputs": [
        {
          "internalType": "uint256",
          "name": "_mintAmount",
          "type": "uint256"
        }
      ],
      "name": "mintItem",
      "outputs": [],
      "stateMutability": "payable",
      "type": "function"
    },
    {
      "inputs": [],
      "name": "name",
      "outputs": [
        {
          "internalType": "string",
          "name": "",
          "type": "string"
        }
      ],
      "stateMutability": "view",
      "type": "function"
    },
    {
      "inputs": [],
      "name": "owner",
      "outputs": [
        {
          "internalType": "address",
          "name": "",
          "type": "address"
        }
      ],
      "stateMutability": "view",
      "type": "function"
    },
    {
      "inputs": [
        {
          "internalType": "uint256",
          "name": "tokenId",
          "type": "uint256"
        }
      ],
      "name": "ownerOf",
      "outputs": [
        {
          "internalType": "address",
          "name": "",
          "type": "address"
        }
      ],
      "stateMutability": "view",
      "type": "function"
    },
    {
      "inputs": [
        {
          "internalType": "bool",
          "name": "_isPaused",
          "type": "bool"
        }
      ],
      "name": "pause",
      "outputs": [],
      "stateMutability": "nonpayable",
      "type": "function"
    },
    {
      "inputs": [],
      "name": "paused",
      "outputs": [
        {
          "internalType": "bool",
          "name": "",
          "type": "bool"
        }
      ],
      "stateMutability": "view",
      "type": "function"
    },
    {
      "inputs": [],
      "name": "price",
      "outputs": [
        {
          "internalType": "uint256",
          "name": "",
          "type": "uint256"
        }
      ],
      "stateMutability": "view",
      "type": "function"
    },
    {
      "inputs": [],
      "name": "registry",
      "outputs": [
        {
          "internalType": "contract IERC6551Registry",
          "name": "",
          "type": "address"
        }
      ],
      "stateMutability": "view",
      "type": "function"
    },
    {
      "inputs": [],
      "name": "renounceOwnership",
      "outputs": [],
      "stateMutability": "nonpayable",
      "type": "function"
    },
    {
      "inputs": [
        {
          "internalType": "address",
          "name": "from",
          "type": "address"
        },
        {
          "internalType": "address",
          "name": "to",
          "type": "address"
        },
        {
          "internalType": "uint256",
          "name": "tokenId",
          "type": "uint256"
        }
      ],
      "name": "safeTransferFrom",
      "outputs": [],
      "stateMutability": "nonpayable",
      "type": "function"
    },
    {
      "inputs": [
        {
          "internalType": "address",
          "name": "from",
          "type": "address"
        },
        {
          "internalType": "address",
          "name": "to",
          "type": "address"
        },
        {
          "internalType": "uint256",
          "name": "tokenId",
          "type": "uint256"
        },
        {
          "internalType": "bytes",
          "name": "data",
          "type": "bytes"
        }
      ],
      "name": "safeTransferFrom",
      "outputs": [],
      "stateMutability": "nonpayable",
      "type": "function"
    },
    {
      "inputs": [
        {
          "internalType": "address",
          "name": "operator",
          "type": "address"
        },
        {
          "internalType": "bool",
          "name": "approved",
          "type": "bool"
        }
      ],
      "name": "setApprovalForAll",
      "outputs": [],
      "stateMutability": "nonpayable",
      "type": "function"
    },
    {
      "inputs": [
        {
          "internalType": "address",
          "name": "_newAddress",
          "type": "address"
        }
      ],
      "name": "setBGAddress",
      "outputs": [],
      "stateMutability": "nonpayable",
      "type": "function"
    },
    {
      "inputs": [
        {
          "internalType": "address",
          "name": "_accountAddress",
          "type": "address"
        }
      ],
      "name": "setDefaultAccountImplementation",
      "outputs": [],
      "stateMutability": "nonpayable",
      "type": "function"
    },
    {
      "inputs": [
        {
          "internalType": "uint256",
          "name": "tokenId",
          "type": "uint256"
        },
        {
          "internalType": "address",
          "name": "_accountAddress",
          "type": "address"
        }
      ],
      "name": "setMainAccount",
      "outputs": [],
      "stateMutability": "nonpayable",
      "type": "function"
    },
    {
      "inputs": [
        {
          "internalType": "uint256",
          "name": "_newMaxSupply",
          "type": "uint256"
        }
      ],
      "name": "setMaxSupply",
      "outputs": [],
      "stateMutability": "nonpayable",
      "type": "function"
    },
    {
      "inputs": [
        {
          "internalType": "address",
          "name": "_newAddress",
          "type": "address"
        }
      ],
      "name": "setTeamAddress",
      "outputs": [],
      "stateMutability": "nonpayable",
      "type": "function"
    },
    {
      "inputs": [
        {
          "internalType": "bytes4",
          "name": "interfaceId",
          "type": "bytes4"
        }
      ],
      "name": "supportsInterface",
      "outputs": [
        {
          "internalType": "bool",
          "name": "",
          "type": "bool"
        }
      ],
      "stateMutability": "view",
      "type": "function"
    },
    {
      "inputs": [],
      "name": "symbol",
      "outputs": [
        {
          "internalType": "string",
          "name": "",
          "type": "string"
        }
      ],
      "stateMutability": "view",
      "type": "function"
    },
    {
      "inputs": [],
      "name": "team",
      "outputs": [
        {
          "internalType": "address",
          "name": "",
          "type": "address"
        }
      ],
      "stateMutability": "view",
      "type": "function"
    },
    {
      "inputs": [
        {
          "internalType": "uint256",
          "name": "index",
          "type": "uint256"
        }
      ],
      "name": "tokenByIndex",
      "outputs": [
        {
          "internalType": "uint256",
          "name": "",
          "type": "uint256"
        }
      ],
      "stateMutability": "view",
      "type": "function"
    },
    {
      "inputs": [
        {
          "internalType": "uint256",
          "name": "",
          "type": "uint256"
        }
      ],
      "name": "tokenIdToDefaultAccountImplementation",
      "outputs": [
        {
          "internalType": "address",
          "name": "",
          "type": "address"
        }
      ],
      "stateMutability": "view",
      "type": "function"
    },
    {
      "inputs": [
        {
          "internalType": "address",
          "name": "owner",
          "type": "address"
        },
        {
          "internalType": "uint256",
          "name": "index",
          "type": "uint256"
        }
      ],
      "name": "tokenOfOwnerByIndex",
      "outputs": [
        {
          "internalType": "uint256",
          "name": "",
          "type": "uint256"
        }
      ],
      "stateMutability": "view",
      "type": "function"
    },
    {
      "inputs": [
        {
          "internalType": "uint256",
          "name": "id",
          "type": "uint256"
        }
      ],
      "name": "tokenURI",
      "outputs": [
        {
          "internalType": "string",
          "name": "_tokenURI",
          "type": "string"
        }
      ],
      "stateMutability": "view",
      "type": "function"
    },
    {
      "inputs": [],
      "name": "totalSupply",
      "outputs": [
        {
          "internalType": "uint256",
          "name": "",
          "type": "uint256"
        }
      ],
      "stateMutability": "view",
      "type": "function"
    },
    {
      "inputs": [
        {
          "internalType": "address",
          "name": "from",
          "type": "address"
        },
        {
          "internalType": "address",
          "name": "to",
          "type": "address"
        },
        {
          "internalType": "uint256",
          "name": "tokenId",
          "type": "uint256"
        }
      ],
      "name": "transferFrom",
      "outputs": [],
      "stateMutability": "nonpayable",
      "type": "function"
    },
    {
      "inputs": [
        {
          "internalType": "address",
          "name": "newOwner",
          "type": "address"
        }
      ],
      "name": "transferOwnership",
      "outputs": [],
      "stateMutability": "nonpayable",
      "type": "function"
    },
    {
      "inputs": [],
      "name": "withdraw",
      "outputs": [],
      "stateMutability": "nonpayable",
      "type": "function"
    },
    {
      "stateMutability": "payable",
      "type": "receive"
    }
  ],
  "transactionHash": "0x629b51e6037f4120a66feacccfe0f01532ec5d7caa96d91643331c54acde208c",
  "args": [
    "NBA NFT",
    "NBA",
    "0xAB0C15E8a05Aa0dE5cf5d82890F5590529Dd8f03",
    "0xc0aFE163171B296D5e78e7Df50aa49484dDa5146",
    "0x436d3860d2a255c398Ce31CdF600fd6a1D6E33f6"
  ],
  "numDeployments": 1,
  "solcInputHash": "504eb49cb29d1062478471eda13e5141",
  "bytecode": "0x60a060405234620004225762002601803803806200001d8162000427565b92833981019060a081830312620004225780516001600160401b039190828111620004225783620000509183016200044d565b90602093848201519084821162000422576200006e9183016200044d565b6200007c60408301620004bf565b9260608301519460018060a01b039384871680970362000422576080620000a49101620004bf565b928251908282116200040c576000988954926001958685811c9516801562000401575b83861014620003ed578190601f9586811162000397575b5083908d87841160011462000333579262000327575b5050600019600383901b1c191690861b178a555b8151938411620003135784548581811c9116801562000308575b82821014620002f45790818486959493116200029d575b5080928411600114620002355750899262000229575b5050600019600383901b1c191690821b1790555b600a549260018060a01b0319933385821617600a55604051967f8be0079c531659141344cd1fd0a4f28419497f9722a3daafe3b4186f6b6457e0853393169180a36107d0600b5566470de4df820000600c556005600d5574ca7632327567796e51920f6b16373e92c78238540060018060a81b0319600e541617600e557397843608a00e2bbc75ab0c1911387e002565dede84600f541617600f5560805216816010541617601055601854161760185561212c9081620004d582396080518161053d0152f35b0151905038806200014f565b9190859450601f198416858c52838c20938c905b82821062000283575050841162000269575b505050811b01905562000163565b015160001960f88460031b161c191690553880806200025b565b848401518655889790950194938401939081019062000249565b9091929350858b52818b208480870160051c820192848810620002ea575b9187968992969594930160051c01915b828110620002db57505062000139565b8d8155879650889101620002cb565b92508192620002bb565b634e487b7160e01b8b52602260045260248bfd5b90607f169062000122565b634e487b7160e01b8a52604160045260248afd5b015190503880620000f4565b9190899450601f198416838052868420935b8782821062000380575050841162000366575b505050811b018a5562000108565b015160001960f88460031b161c1916905538808062000358565b8385015186558c9790950194938401930162000345565b9091508c8052838d208680850160051c820192868610620003e3575b859493910160051c9091019089908f5b838210620003d457505050620000de565b81558594508a91018f620003c3565b92508192620003b3565b634e487b7160e01b8c52602260045260248cfd5b94607f1694620000c7565b634e487b7160e01b600052604160045260246000fd5b600080fd5b6040519190601f01601f191682016001600160401b038111838210176200040c57604052565b919080601f84011215620004225782516001600160401b0381116200040c5760209062000483601f8201601f1916830162000427565b92818452828287010111620004225760005b818110620004ab57508260009394955001015290565b858101830151848201840152820162000495565b51906001600160a01b0382168203620004225756fe608080604052600436101561001d575b50361561001b57600080fd5b005b60003560e01c90816301ffc9a7146117895750806302329a291461175057806306fdde0314611691578063081812fc14611673578063095ea7b3146114f957806317fb859414610f0857806318160ddd14610eea5780631d6956c614610eb6578063239c70ae14610e9857806323b872dd14610e745780632f745c5914610dc25780633122f35d14610d8b5780633ccfd60b14610ce057806342842e0e14610c9a5780634f6ccce714610c09578063577f435c14610bc65780635c975abb14610ba35780636352211e14610b735780636690864e14610b2b5780636f8b44b014610b0a57806370a0823114610adf578063715018a614610a825780637b10399914610a5957806385f2aef214610a2c5780638da5cb5b14610a0357806395d89b41146108f85780639de8a68f146108c45780639e70afe71461088d578063a035b1fe1461086f578063a05b0d6c14610838578063a22cb46514610766578063b88d4fde146106b8578063bbeaabf214610675578063c50e8f101461064c578063c87b56dd146103ae578063d5abeb0114610390578063dde6f4841461036c578063e94dc32b14610343578063e985e9c5146102ed578063f2fde38b146102295763f8df93c7146101ed573861000f565b34610224576020366003190112610224576004356000526012602052602060406000205460e81b6040519062ffffff60e81b168152f35b600080fd5b3461022457602036600319011261022457610242611856565b61024a6118f5565b6001600160a01b0390811690811561029957600a54826001600160601b0360a01b821617600a55167f8be0079c531659141344cd1fd0a4f28419497f9722a3daafe3b4186f6b6457e0600080a3005b60405162461bcd60e51b815260206004820152602660248201527f4f776e61626c653a206e6577206f776e657220697320746865207a65726f206160448201526564647265737360d01b6064820152608490fd5b3461022457604036600319011261022457610306611856565b61030e61186c565b9060018060a01b03809116600052600560205260406000209116600052602052602060ff604060002054166040519015158152f35b3461022457600036600319011261022457600f546040516001600160a01b039091168152602090f35b346102245760403660031901126102245761001b61038861186c565b600435612085565b34610224576000366003190112610224576020600b54604051908152f35b3461022457602080600319360112610224576004356000908152600260205260409020546001600160a01b03161561061c576004356000526012815260406000205490601381526040600020546014825260406000205460e81b6015835260406000205460e81b906016845260018060a01b0360406000205416610433600435611a10565b926004356000526017865260018060a01b0360406000205416926040519561012087019867ffffffffffffffff998881108b821117610606576040908152468952600480358b8b019081526001600160e81b031960e894851b81168c85019081529590941b841660608c0190815295841660808c0190815296841660a08c0190815260c08c0198895260e08c01998a526001600160a01b039a8b166101008d019081529351633063df1360e21b81529b51928c01929092525160248b01529251821660448a01529251811660648901529251831660848801525190911660a48601529051831660c48501529051821660e484015251811661010483015260009082906101249082907f0000000000000000000000000000000000000000000000000000000000000000165afa9283156105fa57600093610588575b5050610584604051928284938452830190611831565b0390f35b909192503d806000843e61059c81846118b7565b8201918381840312610224578051918211610224570181601f820112156102245780516105c8816118d9565b926105d660405194856118b7565b818452848284010111610224576105f29184808501910161180e565b90828061056e565b6040513d6000823e3d90fd5b634e487b7160e01b600052604160045260246000fd5b6064906040519062461bcd60e51b8252600482015260096024820152681b9bdd08195e1a5cdd60ba1b6044820152fd5b34610224576000366003190112610224576010546040516001600160a01b039091168152602090f35b346102245760203660031901126102245761068e611856565b6106966118f5565b600f80546001600160a01b0319166001600160a01b0392909216919091179055005b34610224576080366003190112610224576106d1611856565b6106d961186c565b906064359060443567ffffffffffffffff831161022457366023840112156102245782600401359361070a856118d9565b9261071860405194856118b7565b858452366024878701011161022457600060208761001b9860246107619901838901378601015261075161074c8433611b4d565b611a74565b61075c838383611c15565b611f61565b611b29565b346102245760403660031901126102245761077f611856565b60243590811515809203610224576001600160a01b0316903382146107f357336000526005602052604060002082600052602052604060002060ff1981541660ff83161790556040519081527f17307eab39ab6107e8899845ad3d59bd9653f200f220920489ca2b5937696c3160203392a3005b60405162461bcd60e51b815260206004820152601960248201527f4552433732313a20617070726f766520746f2063616c6c6572000000000000006044820152606490fd5b34610224576020366003190112610224576004356000526014602052602060406000205460e81b6040519062ffffff60e81b168152f35b34610224576000366003190112610224576020600c54604051908152f35b34610224576020366003190112610224576004356000526013602052602060406000205460e81b6040519062ffffff60e81b168152f35b34610224576020366003190112610224576004356000526017602052602060018060a01b0360406000205416604051908152f35b3461022457600036600319011261022457604051600060019081549182811c918184169182156109f9575b60209485851084146109e35785879486865291826000146109c3575050600114610969575b50610955925003836118b7565b610584604051928284938452830190611831565b6000818152859250907fb10e2d527612073b26eecdfd717e6a320cf44b4afac2b0732d9fcbe2b7fa0cf65b8583106109ab575050610955935082010185610948565b80548389018501528794508693909201918101610994565b60ff19168582015261095595151560051b85010192508791506109489050565b634e487b7160e01b600052602260045260246000fd5b92607f1692610923565b3461022457600036600319011261022457600a546040516001600160a01b039091168152602090f35b3461022457600036600319011261022457600e5460405160089190911c6001600160a01b03168152602090f35b34610224576000366003190112610224576018546040516001600160a01b039091168152602090f35b3461022457600036600319011261022457610a9b6118f5565b600a80546001600160a01b031981169091556000906001600160a01b03167f8be0079c531659141344cd1fd0a4f28419497f9722a3daafe3b4186f6b6457e08280a3005b34610224576020366003190112610224576020610b02610afd611856565b61194d565b604051908152f35b3461022457602036600319011261022457610b236118f5565b600435600b55005b3461022457602036600319011261022457610b44611856565b610b4c6118f5565b600e8054610100600160a81b03191660089290921b610100600160a81b0316919091179055005b34610224576020366003190112610224576020610b91600435611a10565b6040516001600160a01b039091168152f35b3461022457600036600319011261022457602060ff600e54166040519015158152f35b3461022457602036600319011261022457610bdf611856565b610be76118f5565b601080546001600160a01b0319166001600160a01b0392909216919091179055005b3461022457602036600319011261022457600435600854811015610c4057610c32602091611fec565b90546040519160031b1c8152f35b60405162461bcd60e51b815260206004820152602c60248201527f455243373231456e756d657261626c653a20676c6f62616c20696e646578206f60448201526b7574206f6620626f756e647360a01b6064820152608490fd5b3461022457610ca836611882565b60405190602082019282841067ffffffffffffffff8511176106065761001b94610761946040526000845261075161074c8433611b4d565b3461022457600036600319011261022457610cf96118f5565b476107d0808202908282041482151715610d7557600e54612710909104916001600160a01b03918382039060081c8316828211610d755760009283928392839283908914610d6c575bf1156105fa5760008080938193600f5416828215610d63575bf1156105fa57005b506108fc610d5b565b506108fc610d42565b634e487b7160e01b600052601160045260246000fd5b34610224576020366003190112610224576004356000526015602052602060406000205460e81b6040519062ffffff60e81b168152f35b3461022457604036600319011261022457610ddb611856565b60243590610de88161194d565b821015610e1b5760018060a01b031660005260066020526040600020906000526020526020604060002054604051908152f35b60405162461bcd60e51b815260206004820152602b60248201527f455243373231456e756d657261626c653a206f776e657220696e646578206f7560448201526a74206f6620626f756e647360a81b6064820152608490fd5b346102245761001b610e8536611882565b91610e9361074c8433611b4d565b611c15565b34610224576000366003190112610224576020600d54604051908152f35b34610224576020366003190112610224576004356000526016602052602060018060a01b0360406000205416604051908152f35b34610224576000366003190112610224576020600854604051908152f35b60203660031901126102245760085460ff600e54166114c357600b54111561148f576004351561145c57600d546004351161141757600a546001600160a01b031633036113c0575b4360001901331560015b600435811115610f6657005b600160115401806011556040519283602081011067ffffffffffffffff60208601111761060657602084016040526000845261137c57600081815260026020526040902054610fc1906001600160a01b031615155b15612039565b60085481600052600960205280604060002055600160401b8110156106065781610ff482600161100f9401600855611fec565b90919082549060031b600019811b9283911b16911916179055565b6110d26107616000946110213361194d565b3360005260066020526040600020816000526020528460406000205584600052600760205260406000205561106e610fbb85600052600260205260018060a01b0360406000205416151590565b3360005260036020526040600020600181540190558360005260026020526040600020336001600160601b0360a01b825416179055833360007fddf252ad1be2c89b69c2b068fc378daa952ba7f163c4a11628f55a4df523b3ef8180a48333611e41565b438411610d7557604051816020820152844060408201523360601b60608201524260748201523060601b6094820152608881528060c081011067ffffffffffffffff60c0830111176106065760c0810160405280516020820120826000526012602052604060002060ff60f01b8260021a60f01b1660ff60f41b8360011a60f41b1660ff60f81b8460001a60f81b16171760e81c62ffffff198254161790556013602052604060002060ff60f01b8260011a60f01b1660ff60f81b8360031a60f81b161760e81c62ffffff19825416179055601460205260406000209060ff60e81b91828260011a60e81b1660ff60f01b8360001a60f01b1660ff60f81b8460021a60f81b16171760e81c62ffffff1982541617905560156020526040600020918160061a60e81b169060ff60f41b8160051a60f41b169060ff60f81b9060041a60f81b16171760e81c62ffffff19825416179055602060018060a01b036018541660018060a01b036010541663da7323b360e01b60c085015260c484015260e4468185015230610104850152846101248501528461014485015260c0610164850152600061018485015260c0840191600060c08601915af19081156105fa57600091611334575b506001600160a01b038116156112ef576112de9160018060a01b03601054168160005260166020526040600020906001600160601b0360a01b825416179055612085565b6000198114610d7557600101610f5a565b60405162461bcd60e51b815260206004820152601860248201527f4661696c656420746f20637265617465206163636f756e7400000000000000006044820152606490fd5b90506020813d602011611374575b8161135260209360c084016118b7565b810103126102245760c001516001600160a01b0381168103610224578561129a565b3d9150611342565b606460405162461bcd60e51b815260206004820152602060248201527f4552433732313a206d696e7420746f20746865207a65726f20616464726573736044820152fd5b600c546004358102908082046004351490151715610d7557341015610f505760405162461bcd60e51b815260206004820152601060248201526f092dce6eaccccd2c6d2cadce8408aa8960831b6044820152606490fd5b60405162461bcd60e51b815260206004820152601860248201527f45786365656473206d6178206d696e7420616c6c6f77656400000000000000006044820152606490fd5b60405162461bcd60e51b815260206004820152600b60248201526a16995c9bc8185b5bdd5b9d60aa1b6044820152606490fd5b60405162461bcd60e51b815260206004820152600c60248201526b26b4b73a34b7339037bb32b960a11b6044820152606490fd5b60405162461bcd60e51b815260206004820152600e60248201526d135a5b9d1a5b99c81c185d5cd95960921b6044820152606490fd5b3461022457604036600319011261022457611512611856565b602435906001600160a01b03808061152985611a10565b16921691808314611624578033149081156115ff575b501561159457600083815260046020526040902080546001600160a01b0319168317905561156c83611a10565b167f8c5be1e5ebec7d5bd14f71427d1e84f3dd0314c0f7b2291e5b200ac8c7c3b925600080a4005b60405162461bcd60e51b815260206004820152603d60248201527f4552433732313a20617070726f76652063616c6c6572206973206e6f7420746f60448201527f6b656e206f776e6572206f7220617070726f76656420666f7220616c6c0000006064820152608490fd5b9050600052600560205260406000203360005260205260ff604060002054168461153f565b60405162461bcd60e51b815260206004820152602160248201527f4552433732313a20617070726f76616c20746f2063757272656e74206f776e656044820152603960f91b6064820152608490fd5b34610224576020366003190112610224576020610b91600435611a36565b34610224576000366003190112610224576040516000805490600182811c91818416918215611746575b60209485851084146109e35785879486865291826000146109c35750506001146116ec5750610955925003836118b7565b6000808052859250907f290decd9548b62a8d60345a988386fc84ba6bc95484008f6362f93160ef3e5635b85831061172e575050610955935082010185610948565b80548389018501528794508693909201918101611717565b92607f16926116bb565b3461022457602036600319011261022457600435801515809103610224576117766118f5565b60ff8019600e5416911617600e55600080f35b34610224576020366003190112610224576004359063ffffffff60e01b82168092036102245760209163780e9d6360e01b81149081156117cb575b5015158152f35b6380ac58cd60e01b8114915081156117fd575b81156117ec575b50836117c4565b6301ffc9a760e01b149050836117e5565b635b5e139f60e01b811491506117de565b60005b8381106118215750506000910152565b8181015183820152602001611811565b9060209161184a8151809281855285808601910161180e565b601f01601f1916010190565b600435906001600160a01b038216820361022457565b602435906001600160a01b038216820361022457565b6060906003190112610224576001600160a01b0390600435828116810361022457916024359081168103610224579060443590565b90601f8019910116810190811067ffffffffffffffff82111761060657604052565b67ffffffffffffffff811161060657601f01601f191660200190565b600a546001600160a01b0316330361190957565b606460405162461bcd60e51b815260206004820152602060248201527f4f776e61626c653a2063616c6c6572206973206e6f7420746865206f776e65726044820152fd5b6001600160a01b0316801561196d57600052600360205260406000205490565b60405162461bcd60e51b815260206004820152602960248201527f4552433732313a2061646472657373207a65726f206973206e6f7420612076616044820152683634b21037bbb732b960b91b6064820152608490fd5b156119cb57565b60405162461bcd60e51b815260206004820152601860248201527f4552433732313a20696e76616c696420746f6b656e20494400000000000000006044820152606490fd5b6000908152600260205260409020546001600160a01b0316611a338115156119c4565b90565b600081815260026020526040902054611a59906001600160a01b031615156119c4565b6000908152600460205260409020546001600160a01b031690565b15611a7b57565b60405162461bcd60e51b815260206004820152602d60248201527f4552433732313a2063616c6c6572206973206e6f7420746f6b656e206f776e6560448201526c1c881bdc88185c1c1c9bdd9959609a1b6064820152608490fd5b60809060208152603260208201527f4552433732313a207472616e7366657220746f206e6f6e20455243373231526560408201527131b2b4bb32b91034b6b83632b6b2b73a32b960711b60608201520190565b15611b3057565b60405162461bcd60e51b815280611b4960048201611ad6565b0390fd5b906001600160a01b038080611b6184611a10565b16931691838314938415611b94575b508315611b7e575b50505090565b611b8a91929350611a36565b1614388080611b78565b909350600052600560205260406000208260005260205260ff604060002054169238611b70565b15611bc257565b60405162461bcd60e51b815260206004820152602560248201527f4552433732313a207472616e736665722066726f6d20696e636f72726563742060448201526437bbb732b960d91b6064820152608490fd5b611c3991611c2284611a10565b6001600160a01b0393848416939185168414611bbb565b838216938415611df057839182611d4d575090506008549085600052600960205281604060002055600160401b82101561060657611c9f92611c8687610ff4856001899701600855611fec565b828603611d1a575b50611c9886611a10565b1614611bbb565b7fddf252ad1be2c89b69c2b068fc378daa952ba7f163c4a11628f55a4df523b3ef60008481526004602052604081206001600160601b0360a01b9081815416905583825260036020526040822060001981540190558482526040822060018154019055858252600260205284604083209182541617905580a4565b611d239061194d565b60406000878152600660205281812083825260205288828220558881526007602052205538611c8e565b858303611d5f575b50611c9f92611c86565b611d6a91925061194d565b600019810191908211610d7557611c9f9284926000908882526020906007825260409182842054828103611db9575b508a84528383812055868452600681528284209184525281205592611d55565b8785526006825283852083865282528385205488865260068352848620828752835280858720558552600782528385205538611d99565b60405162461bcd60e51b8152602060048201526024808201527f4552433732313a207472616e7366657220746f20746865207a65726f206164646044820152637265737360e01b6064820152608490fd5b9192600092909190803b15611f5757611e8f946040518092630a85bd0160e11b9485835233600484015287602484015260448301526080606483015281878160209a8b966084830190611831565b03926001600160a01b03165af1849181611f13575b50611f02575050503d600014611efa573d611ebe816118d9565b90611ecc60405192836118b7565b81528091833d92013e5b80519182611ef75760405162461bcd60e51b815280611b4960048201611ad6565b01fd5b506060611ed6565b6001600160e01b0319161492509050565b9091508581813d8311611f50575b611f2b81836118b7565b81010312611f4c57516001600160e01b031981168103611f4c579038611ea4565b8480fd5b503d611f21565b5050915050600190565b9293600093909291803b15611fe157948491611fbb9660405180948193630a85bd0160e11b9788845233600485015260018060a01b0380921660248501526044840152608060648401528260209b8c976084830190611831565b0393165af1849181611f135750611f02575050503d600014611efa573d611ebe816118d9565b505050915050600190565b6008548110156120235760086000527ff3f7a9fe364faab93b216da50a3214154f22a0a2b415b23a84c8169e8b636ee30190600090565b634e487b7160e01b600052603260045260246000fd5b1561204057565b60405162461bcd60e51b815260206004820152601c60248201527f4552433732313a20746f6b656e20616c7265616479206d696e746564000000006044820152606490fd5b6001600160a01b03908161209882611a10565b1633036120c1576000526017602052604060002091166001600160601b0360a01b825416179055565b60405162461bcd60e51b815260206004820152600d60248201526c2737ba1027232a1027bbb732b960991b6044820152606490fdfea2646970667358221220b7922a793ddbb228f1678137874c5681a076ebdf063b3066ab4208374b597b1364736f6c63430008110033",
  "devdoc": {
    "author": "Danny Thomx",
    "details": "Ensure you're familiar with ERC721 standard before interacting with this contract.",
    "kind": "dev",
    "methods": {
      "approve(address,uint256)": {
        "details": "See {IERC721-approve}."
      },
      "balanceOf(address)": {
        "details": "See {IERC721-balanceOf}."
      },
      "constructor": {
        "params": {
          "_name": "Name of the NFT.",
          "_symbol": "Symbol of the NFT."
        }
      },
      "getApproved(uint256)": {
        "details": "See {IERC721-getApproved}."
      },
      "isApprovedForAll(address,address)": {
        "details": "See {IERC721-isApprovedForAll}."
      },
      "mintItem(uint256)": {
        "details": "The function checks for maximum minting limit and ensures correct payment.",
        "params": {
          "_mintAmount": "Number of NFTs user wants to mint."
        }
      },
      "name()": {
        "details": "See {IERC721Metadata-name}."
      },
      "owner()": {
        "details": "Returns the address of the current owner."
      },
      "ownerOf(uint256)": {
        "details": "See {IERC721-ownerOf}."
      },
      "pause(bool)": {
        "params": {
          "_isPaused": "new pause state."
        }
      },
      "renounceOwnership()": {
        "details": "Leaves the contract without owner. It will not be possible to call `onlyOwner` functions. Can only be called by the current owner. NOTE: Renouncing ownership will leave the contract without an owner, thereby disabling any functionality that is only available to the owner."
      },
      "safeTransferFrom(address,address,uint256)": {
        "details": "See {IERC721-safeTransferFrom}."
      },
      "safeTransferFrom(address,address,uint256,bytes)": {
        "details": "See {IERC721-safeTransferFrom}."
      },
      "setApprovalForAll(address,bool)": {
        "details": "See {IERC721-setApprovalForAll}."
      },
      "setBGAddress(address)": {
        "params": {
          "_newAddress": "new buidlGuidl address."
        }
      },
      "setDefaultAccountImplementation(address)": {
        "details": "Only the owner can set this.",
        "params": {
          "_accountAddress": "Address of the default account implementation."
        }
      },
      "setMainAccount(uint256,address)": {
        "params": {
          "_accountAddress": "Address of the main account.",
          "tokenId": "The ID of the NFT."
        }
      },
      "setMaxSupply(uint256)": {
        "details": "Only the owner can change this.",
        "params": {
          "_newMaxSupply": "New max mint amount."
        }
      },
      "setTeamAddress(address)": {
        "params": {
          "_newAddress": "new team address."
        }
      },
      "supportsInterface(bytes4)": {
        "details": "See {IERC165-supportsInterface}."
      },
      "symbol()": {
        "details": "See {IERC721Metadata-symbol}."
      },
      "tokenByIndex(uint256)": {
        "details": "See {IERC721Enumerable-tokenByIndex}."
      },
      "tokenOfOwnerByIndex(address,uint256)": {
        "details": "See {IERC721Enumerable-tokenOfOwnerByIndex}."
      },
      "tokenURI(uint256)": {
        "params": {
          "id": "The ID of the NFT."
        },
        "returns": {
          "_tokenURI": "URI of the NFT."
        }
      },
      "totalSupply()": {
        "details": "See {IERC721Enumerable-totalSupply}."
      },
      "transferFrom(address,address,uint256)": {
        "details": "See {IERC721-transferFrom}."
      },
      "transferOwnership(address)": {
        "details": "Transfers ownership of the contract to a new account (`newOwner`). Can only be called by the current owner."
      },
      "withdraw()": {
        "details": "Only the owner can call this."
      }
    },
    "stateVariables": {
      "BASIS_POINTS": {
        "details": "Represents 100%"
      },
      "BUIDLGUIDL_ALLOCATION_BASIS_POINTS": {
        "details": "20% in basis points"
      },
      "_tokenIdCounter": {
        "details": "Counter for tracking tokenIds."
      },
      "buidlGuidl": {
        "details": "Address of the buidlGuidl for revenue sharing."
      },
      "color_1": {
        "details": "Mapping to store colors associated with NFTs."
      },
      "defaultAccountImplementation": {
        "details": "Address of the default account implementation."
      },
      "mainAccount": {
        "details": "Mapping to store main accounts for each tokenId."
      },
      "maxMintAmount": {
        "details": "Maximum number of NFTs one can mint in a single transaction."
      },
      "maxSupply": {
        "details": "Maximum number of NFTs available for minting."
      },
      "paused": {
        "details": "State variable to control minting functionality."
      },
      "price": {
        "details": "Cost of minting an NFT."
      },
      "team": {
        "details": "Address of the team for revenue sharing."
      },
      "tokenIdToDefaultAccountImplementation": {
        "details": "Mapping to store default accounts for each tokenId."
      }
    },
    "title": "NBA NFT Contract",
    "version": 1
  },
  "userdoc": {
    "kind": "user",
    "methods": {
      "constructor": {
        "notice": "Contract constructor to set the name and symbol for the NFT."
      },
      "mintItem(uint256)": {
        "notice": "Allows users to mint new NFTs."
      },
      "pause(bool)": {
        "notice": "Owner users to pause minting of NFTs."
      },
      "setBGAddress(address)": {
        "notice": "Owner users to change buidlGuidl's address."
      },
      "setDefaultAccountImplementation(address)": {
        "notice": "Set default account implementation."
      },
      "setMainAccount(uint256,address)": {
        "notice": "Set main account for a specific tokenId."
      },
      "setMaxSupply(uint256)": {
        "notice": "Sets the maximum amount of NFTs that can be minted in one transaction."
      },
      "setTeamAddress(address)": {
        "notice": "Owner users to change team's address."
      },
      "tokenURI(uint256)": {
        "notice": "Provides the URI for a specific NFT."
      },
      "withdraw()": {
        "notice": "Allows the owner to withdraw the contract's balance."
      }
    },
    "notice": "This contract mints and manages the NBA NFTs.",
    "version": 1
  },
  "storageLayout": {
    "storage": [
      {
        "astId": 1667,
        "contract": "contracts/NBANFT/NBANFT.sol:NBA",
        "label": "_name",
        "offset": 0,
        "slot": "0",
        "type": "t_string_storage"
      },
      {
        "astId": 1669,
        "contract": "contracts/NBANFT/NBANFT.sol:NBA",
        "label": "_symbol",
        "offset": 0,
        "slot": "1",
        "type": "t_string_storage"
      },
      {
        "astId": 1673,
        "contract": "contracts/NBANFT/NBANFT.sol:NBA",
        "label": "_owners",
        "offset": 0,
        "slot": "2",
        "type": "t_mapping(t_uint256,t_address)"
      },
      {
        "astId": 1677,
        "contract": "contracts/NBANFT/NBANFT.sol:NBA",
        "label": "_balances",
        "offset": 0,
        "slot": "3",
        "type": "t_mapping(t_address,t_uint256)"
      },
      {
        "astId": 1681,
        "contract": "contracts/NBANFT/NBANFT.sol:NBA",
        "label": "_tokenApprovals",
        "offset": 0,
        "slot": "4",
        "type": "t_mapping(t_uint256,t_address)"
      },
      {
        "astId": 1687,
        "contract": "contracts/NBANFT/NBANFT.sol:NBA",
        "label": "_operatorApprovals",
        "offset": 0,
        "slot": "5",
        "type": "t_mapping(t_address,t_mapping(t_address,t_bool))"
      },
      {
        "astId": 2717,
        "contract": "contracts/NBANFT/NBANFT.sol:NBA",
        "label": "_ownedTokens",
        "offset": 0,
        "slot": "6",
        "type": "t_mapping(t_address,t_mapping(t_uint256,t_uint256))"
      },
      {
        "astId": 2721,
        "contract": "contracts/NBANFT/NBANFT.sol:NBA",
        "label": "_ownedTokensIndex",
        "offset": 0,
        "slot": "7",
        "type": "t_mapping(t_uint256,t_uint256)"
      },
      {
        "astId": 2724,
        "contract": "contracts/NBANFT/NBANFT.sol:NBA",
        "label": "_allTokens",
        "offset": 0,
        "slot": "8",
        "type": "t_array(t_uint256)dyn_storage"
      },
      {
        "astId": 2728,
        "contract": "contracts/NBANFT/NBANFT.sol:NBA",
        "label": "_allTokensIndex",
        "offset": 0,
        "slot": "9",
        "type": "t_mapping(t_uint256,t_uint256)"
      },
      {
        "astId": 7,
        "contract": "contracts/NBANFT/NBANFT.sol:NBA",
        "label": "_owner",
        "offset": 0,
        "slot": "10",
        "type": "t_address"
      },
      {
        "astId": 6268,
        "contract": "contracts/NBANFT/NBANFT.sol:NBA",
        "label": "maxSupply",
        "offset": 0,
        "slot": "11",
        "type": "t_uint256"
      },
      {
        "astId": 6272,
        "contract": "contracts/NBANFT/NBANFT.sol:NBA",
        "label": "price",
        "offset": 0,
        "slot": "12",
        "type": "t_uint256"
      },
      {
        "astId": 6276,
        "contract": "contracts/NBANFT/NBANFT.sol:NBA",
        "label": "maxMintAmount",
        "offset": 0,
        "slot": "13",
        "type": "t_uint256"
      },
      {
        "astId": 6280,
        "contract": "contracts/NBANFT/NBANFT.sol:NBA",
        "label": "paused",
        "offset": 0,
        "slot": "14",
        "type": "t_bool"
      },
      {
        "astId": 6284,
        "contract": "contracts/NBANFT/NBANFT.sol:NBA",
        "label": "team",
        "offset": 1,
        "slot": "14",
        "type": "t_address"
      },
      {
        "astId": 6288,
        "contract": "contracts/NBANFT/NBANFT.sol:NBA",
        "label": "buidlGuidl",
        "offset": 0,
        "slot": "15",
        "type": "t_address"
      },
      {
        "astId": 6299,
        "contract": "contracts/NBANFT/NBANFT.sol:NBA",
        "label": "defaultAccountImplementation",
        "offset": 0,
        "slot": "16",
        "type": "t_address"
      },
      {
        "astId": 6303,
        "contract": "contracts/NBANFT/NBANFT.sol:NBA",
        "label": "_tokenIdCounter",
        "offset": 0,
        "slot": "17",
        "type": "t_struct(Counter)3492_storage"
      },
      {
        "astId": 6308,
        "contract": "contracts/NBANFT/NBANFT.sol:NBA",
        "label": "color_1",
        "offset": 0,
        "slot": "18",
        "type": "t_mapping(t_uint256,t_bytes3)"
      },
      {
        "astId": 6312,
        "contract": "contracts/NBANFT/NBANFT.sol:NBA",
        "label": "color_2",
        "offset": 0,
        "slot": "19",
        "type": "t_mapping(t_uint256,t_bytes3)"
      },
      {
        "astId": 6316,
        "contract": "contracts/NBANFT/NBANFT.sol:NBA",
        "label": "color_3",
        "offset": 0,
        "slot": "20",
        "type": "t_mapping(t_uint256,t_bytes3)"
      },
      {
        "astId": 6320,
        "contract": "contracts/NBANFT/NBANFT.sol:NBA",
        "label": "color_4",
        "offset": 0,
        "slot": "21",
        "type": "t_mapping(t_uint256,t_bytes3)"
      },
      {
        "astId": 6325,
        "contract": "contracts/NBANFT/NBANFT.sol:NBA",
        "label": "tokenIdToDefaultAccountImplementation",
        "offset": 0,
        "slot": "22",
        "type": "t_mapping(t_uint256,t_address)"
      },
      {
        "astId": 6330,
        "contract": "contracts/NBANFT/NBANFT.sol:NBA",
        "label": "mainAccount",
        "offset": 0,
        "slot": "23",
        "type": "t_mapping(t_uint256,t_address)"
      },
      {
        "astId": 6335,
        "contract": "contracts/NBANFT/NBANFT.sol:NBA",
        "label": "registry",
        "offset": 0,
        "slot": "24",
        "type": "t_contract(IERC6551Registry)6799"
      }
    ],
    "types": {
      "t_address": {
        "encoding": "inplace",
        "label": "address",
        "numberOfBytes": "20"
      },
      "t_array(t_uint256)dyn_storage": {
        "base": "t_uint256",
        "encoding": "dynamic_array",
        "label": "uint256[]",
        "numberOfBytes": "32"
      },
      "t_bool": {
        "encoding": "inplace",
        "label": "bool",
        "numberOfBytes": "1"
      },
      "t_bytes3": {
        "encoding": "inplace",
        "label": "bytes3",
        "numberOfBytes": "3"
      },
      "t_contract(IERC6551Registry)6799": {
        "encoding": "inplace",
        "label": "contract IERC6551Registry",
        "numberOfBytes": "20"
      },
      "t_mapping(t_address,t_bool)": {
        "encoding": "mapping",
        "key": "t_address",
        "label": "mapping(address => bool)",
        "numberOfBytes": "32",
        "value": "t_bool"
      },
      "t_mapping(t_address,t_mapping(t_address,t_bool))": {
        "encoding": "mapping",
        "key": "t_address",
        "label": "mapping(address => mapping(address => bool))",
        "numberOfBytes": "32",
        "value": "t_mapping(t_address,t_bool)"
      },
      "t_mapping(t_address,t_mapping(t_uint256,t_uint256))": {
        "encoding": "mapping",
        "key": "t_address",
        "label": "mapping(address => mapping(uint256 => uint256))",
        "numberOfBytes": "32",
        "value": "t_mapping(t_uint256,t_uint256)"
      },
      "t_mapping(t_address,t_uint256)": {
        "encoding": "mapping",
        "key": "t_address",
        "label": "mapping(address => uint256)",
        "numberOfBytes": "32",
        "value": "t_uint256"
      },
      "t_mapping(t_uint256,t_address)": {
        "encoding": "mapping",
        "key": "t_uint256",
        "label": "mapping(uint256 => address)",
        "numberOfBytes": "32",
        "value": "t_address"
      },
      "t_mapping(t_uint256,t_bytes3)": {
        "encoding": "mapping",
        "key": "t_uint256",
        "label": "mapping(uint256 => bytes3)",
        "numberOfBytes": "32",
        "value": "t_bytes3"
      },
      "t_mapping(t_uint256,t_uint256)": {
        "encoding": "mapping",
        "key": "t_uint256",
        "label": "mapping(uint256 => uint256)",
        "numberOfBytes": "32",
        "value": "t_uint256"
      },
      "t_string_storage": {
        "encoding": "bytes",
        "label": "string",
        "numberOfBytes": "32"
      },
      "t_struct(Counter)3492_storage": {
        "encoding": "inplace",
        "label": "struct Counters.Counter",
        "members": [
          {
            "astId": 3491,
            "contract": "contracts/NBANFT/NBANFT.sol:NBA",
            "label": "_value",
            "offset": 0,
            "slot": "0",
            "type": "t_uint256"
          }
        ],
        "numberOfBytes": "32"
      },
      "t_uint256": {
        "encoding": "inplace",
        "label": "uint256",
        "numberOfBytes": "32"
      }
    }
  }
}